:1000000048C008C007C007C005C004C003C002C084
:1000100001C000C018951F931FB71F93BB2019F490
:10002000AA2011F0AA94BA94839509F473957230BA
:1000300039F48E3E29F470E080E018B31F6018BBDD
:10004000772361F4891709F4C0988A1709F4C198D5
:100050008B1709F4C2988C1709F4C39860E016B3A3
:10006000107119F040E050E00AC0539509F443952F
:100070004E3028F0563A18F04EE056EA61E0CC20B7
:1000800019F4DD2011F0DA94CA941F911FBF1F915B
:1000900018951FE017BB13B7187F116013BF19B76E
:1000A000126019BF8824442755276627AA24BB2439
:1000B00077278827FF24DD24CC2400E030E0F89463
:1000C00090E5AEE1B8E2C6E478942227112778944F
:1000D000F0E0EDE6E30FF81D099406C00CC012C075
:1000E00018C01EC024C02AC0F89490E5AEE1B8E262
:1000F000C6E4789429C0F89495E5A9E1B9E1C5E58D
:10010000789422C0F8949EE1A0E5B6E4C8E2789421
:100110001BC0F89490E5A7E3B6E4C6E4789414C055
:10012000F89490E5A7E3B8E2C6E478940DC0F8949B
:1001300090E5A7E3B6E4C6E4789406C0F89490E5A9
:10014000AEE1B8E2C6E47894F0E0E9EAE00FF81D29
:1001500009940DC017C020C024C034C043C047C09C
:1001600056C05DC05CC05BC067C073C07FC030E07C
:10017000662339F1F89422E3A22E2FEFB22E01E08C
:1001800078941FC0AA2021F4BB2011F402E019C00A
:100190006623B9F403E015C031E0662391F400E072
:1001A00010C0662341F0F89422E3A22E2FEFB22E66
:1001B00004E0789406C0AA2021F4BB2011F400E0EA
:1001C0005CC05BC0AA2021F4BB2011F405E0F9CF8C
:1001D0006623B9F7F89422E3A22E2FEFB22E06E0A1
:1001E0007894EFCF32E0662361F700E0EACF662330
:1001F00041F0F89422E3A22E2FEFB22E07E078947C
:100200003CC0AA20F1F6BB20E1F600E036C0F8942D
:1002100022E3D22E2FEFC22E0AE078942EC033E0D4
:10022000DD2049F4CC2039F4F89422E3D22E2FEFCC
:10023000C22E0BE0789421C034E0DD2049F4CC20BC
:1002400039F4F89422E3D22E2FEFC22E0CE07894EA
:1002500014C035E0DD2049F4CC2039F4F89422E3D1
:10026000D22E2FEFC22E0DE0789407C036E0DD20AD
:0C02700019F4CC2009F400E000C02ACFF3
:00000001FF
